{"abi":[{"type":"constructor","inputs":[],"stateMutability":"nonpayable"},{"type":"function","name":"campaigns","inputs":[{"name":"","type":"uint256","internalType":"uint256"}],"outputs":[{"name":"campaignAddress","type":"address","internalType":"address"},{"name":"owner","type":"address","internalType":"address"},{"name":"name","type":"string","internalType":"string"},{"name":"creationTime","type":"uint256","internalType":"uint256"}],"stateMutability":"view"},{"type":"function","name":"createCampaign","inputs":[{"name":"_name","type":"string","internalType":"string"},{"name":"_description","type":"string","internalType":"string"},{"name":"_goal","type":"uint256","internalType":"uint256"},{"name":"_durationInDays","type":"uint256","internalType":"uint256"}],"outputs":[],"stateMutability":"nonpayable"},{"type":"function","name":"getAllCampaigns","inputs":[],"outputs":[{"name":"","type":"tuple[]","internalType":"struct TokenFundFactory.Campaign[]","components":[{"name":"campaignAddress","type":"address","internalType":"address"},{"name":"owner","type":"address","internalType":"address"},{"name":"name","type":"string","internalType":"string"},{"name":"creationTime","type":"uint256","internalType":"uint256"}]}],"stateMutability":"view"},{"type":"function","name":"getUserCampaigns","inputs":[{"name":"_user","type":"address","internalType":"address"}],"outputs":[{"name":"","type":"tuple[]","internalType":"struct TokenFundFactory.Campaign[]","components":[{"name":"campaignAddress","type":"address","internalType":"address"},{"name":"owner","type":"address","internalType":"address"},{"name":"name","type":"string","internalType":"string"},{"name":"creationTime","type":"uint256","internalType":"uint256"}]}],"stateMutability":"view"},{"type":"function","name":"owner","inputs":[],"outputs":[{"name":"","type":"address","internalType":"address"}],"stateMutability":"view"},{"type":"function","name":"paused","inputs":[],"outputs":[{"name":"","type":"bool","internalType":"bool"}],"stateMutability":"view"},{"type":"function","name":"togglePause","inputs":[],"outputs":[],"stateMutability":"nonpayable"},{"type":"function","name":"userCampaigns","inputs":[{"name":"","type":"address","internalType":"address"},{"name":"","type":"uint256","internalType":"uint256"}],"outputs":[{"name":"campaignAddress","type":"address","internalType":"address"},{"name":"owner","type":"address","internalType":"address"},{"name":"name","type":"string","internalType":"string"},{"name":"creationTime","type":"uint256","internalType":"uint256"}],"stateMutability":"view"}],"bytecode":{"object":"0x6080604052348015600e575f5ffd5b50335f5f6101000a81548173ffffffffffffffffffffffffffffffffffffffff021916908373ffffffffffffffffffffffffffffffffffffffff160217905550613f078061005b5f395ff3fe608060405234801561000f575f5ffd5b5060043610610086575f3560e01c80638da5cb5b116100595780638da5cb5b1461012c578063a1e5084c1461014a578063a318f2691461017a578063c4ae31681461019657610086565b8063141961bc1461008a57806319ac74bd146100bd5780635c975abb146100f057806386cdf6041461010e575b5f5ffd5b6100a4600480360381019061009f9190610b30565b6101a0565b6040516100b49493929190610c19565b60405180910390f35b6100d760048036038101906100d29190610c8d565b61029f565b6040516100e79493929190610c19565b60405180910390f35b6100f86103a9565b6040516101059190610ce5565b60405180910390f35b6101166103bb565b6040516101239190610e7f565b60405180910390f35b61013461055a565b6040516101419190610e9f565b60405180910390f35b610164600480360381019061015f9190610eb8565b61057e565b6040516101719190610e7f565b60405180910390f35b610194600480360381019061018f919061100f565b61075a565b005b61019e610a27565b005b600181815481106101af575f80fd5b905f5260205f2090600402015f91509050805f015f9054906101000a900473ffffffffffffffffffffffffffffffffffffffff1690806001015f9054906101000a900473ffffffffffffffffffffffffffffffffffffffff1690806002018054610218906110d8565b80601f0160208091040260200160405190810160405280929190818152602001828054610244906110d8565b801561028f5780601f106102665761010080835404028352916020019161028f565b820191905f5260205f20905b81548152906001019060200180831161027257829003601f168201915b5050505050908060030154905084565b6002602052815f5260405f2081815481106102b8575f80fd5b905f5260205f2090600402015f9150915050805f015f9054906101000a900473ffffffffffffffffffffffffffffffffffffffff1690806001015f9054906101000a900473ffffffffffffffffffffffffffffffffffffffff1690806002018054610322906110d8565b80601f016020809104026020016040519081016040528092919081815260200182805461034e906110d8565b80156103995780601f1061037057610100808354040283529160200191610399565b820191905f5260205f20905b81548152906001019060200180831161037c57829003601f168201915b5050505050908060030154905084565b5f60149054906101000a900460ff1681565b60606001805480602002602001604051908101604052809291908181526020015f905b82821015610551578382905f5260205f2090600402016040518060800160405290815f82015f9054906101000a900473ffffffffffffffffffffffffffffffffffffffff1673ffffffffffffffffffffffffffffffffffffffff1673ffffffffffffffffffffffffffffffffffffffff168152602001600182015f9054906101000a900473ffffffffffffffffffffffffffffffffffffffff1673ffffffffffffffffffffffffffffffffffffffff1673ffffffffffffffffffffffffffffffffffffffff1681526020016002820180546104b8906110d8565b80601f01602080910402602001604051908101604052809291908181526020018280546104e4906110d8565b801561052f5780601f106105065761010080835404028352916020019161052f565b820191905f5260205f20905b81548152906001019060200180831161051257829003601f168201915b50505050508152602001600382015481525050815260200190600101906103de565b50505050905090565b5f5f9054906101000a900473ffffffffffffffffffffffffffffffffffffffff1681565b606060025f8373ffffffffffffffffffffffffffffffffffffffff1673ffffffffffffffffffffffffffffffffffffffff1681526020019081526020015f20805480602002602001604051908101604052809291908181526020015f905b8282101561074f578382905f5260205f2090600402016040518060800160405290815f82015f9054906101000a900473ffffffffffffffffffffffffffffffffffffffff1673ffffffffffffffffffffffffffffffffffffffff1673ffffffffffffffffffffffffffffffffffffffff168152602001600182015f9054906101000a900473ffffffffffffffffffffffffffffffffffffffff1673ffffffffffffffffffffffffffffffffffffffff1673ffffffffffffffffffffffffffffffffffffffff1681526020016002820180546106b6906110d8565b80601f01602080910402602001604051908101604052809291908181526020018280546106e2906110d8565b801561072d5780601f106107045761010080835404028352916020019161072d565b820191905f5260205f20905b81548152906001019060200180831161071057829003601f168201915b50505050508152602001600382015481525050815260200190600101906105dc565b505050509050919050565b5f60149054906101000a900460ff16156107a9576040517f08c379a00000000000000000000000000000000000000000000000000000000081526004016107a090611152565b60405180910390fd5b5f33858585856040516107bb90610adf565b6107c9959493929190611170565b604051809103905ff0801580156107e2573d5f5f3e3d5ffd5b5090505f8190505f60405180608001604052808373ffffffffffffffffffffffffffffffffffffffff1681526020013373ffffffffffffffffffffffffffffffffffffffff168152602001888152602001428152509050600181908060018154018082558091505060019003905f5260205f2090600402015f909190919091505f820151815f015f6101000a81548173ffffffffffffffffffffffffffffffffffffffff021916908373ffffffffffffffffffffffffffffffffffffffff1602179055506020820151816001015f6101000a81548173ffffffffffffffffffffffffffffffffffffffff021916908373ffffffffffffffffffffffffffffffffffffffff1602179055506040820151816002019081610901919061136f565b5060608201518160030155505060025f3373ffffffffffffffffffffffffffffffffffffffff1673ffffffffffffffffffffffffffffffffffffffff1681526020019081526020015f2081908060018154018082558091505060019003905f5260205f2090600402015f909190919091505f820151815f015f6101000a81548173ffffffffffffffffffffffffffffffffffffffff021916908373ffffffffffffffffffffffffffffffffffffffff1602179055506020820151816001015f6101000a81548173ffffffffffffffffffffffffffffffffffffffff021916908373ffffffffffffffffffffffffffffffffffffffff1602179055506040820151816002019081610a11919061136f565b5060608201518160030155505050505050505050565b5f5f9054906101000a900473ffffffffffffffffffffffffffffffffffffffff1673ffffffffffffffffffffffffffffffffffffffff163373ffffffffffffffffffffffffffffffffffffffff1614610ab5576040517f08c379a0000000000000000000000000000000000000000000000000000000008152600401610aac90611488565b60405180910390fd5b5f60149054906101000a900460ff16155f60146101000a81548160ff021916908315150217905550565b612a2b806114a783390190565b5f604051905090565b5f5ffd5b5f5ffd5b5f819050919050565b610b0f81610afd565b8114610b19575f5ffd5b50565b5f81359050610b2a81610b06565b92915050565b5f60208284031215610b4557610b44610af5565b5b5f610b5284828501610b1c565b91505092915050565b5f73ffffffffffffffffffffffffffffffffffffffff82169050919050565b5f610b8482610b5b565b9050919050565b610b9481610b7a565b82525050565b5f81519050919050565b5f82825260208201905092915050565b8281835e5f83830152505050565b5f601f19601f8301169050919050565b5f610bdc82610b9a565b610be68185610ba4565b9350610bf6818560208601610bb4565b610bff81610bc2565b840191505092915050565b610c1381610afd565b82525050565b5f608082019050610c2c5f830187610b8b565b610c396020830186610b8b565b8181036040830152610c4b8185610bd2565b9050610c5a6060830184610c0a565b95945050505050565b610c6c81610b7a565b8114610c76575f5ffd5b50565b5f81359050610c8781610c63565b92915050565b5f5f60408385031215610ca357610ca2610af5565b5b5f610cb085828601610c79565b9250506020610cc185828601610b1c565b9150509250929050565b5f8115159050919050565b610cdf81610ccb565b82525050565b5f602082019050610cf85f830184610cd6565b92915050565b5f81519050919050565b5f82825260208201905092915050565b5f819050602082019050919050565b610d3081610b7a565b82525050565b5f82825260208201905092915050565b5f610d5082610b9a565b610d5a8185610d36565b9350610d6a818560208601610bb4565b610d7381610bc2565b840191505092915050565b610d8781610afd565b82525050565b5f608083015f830151610da25f860182610d27565b506020830151610db56020860182610d27565b5060408301518482036040860152610dcd8282610d46565b9150506060830151610de26060860182610d7e565b508091505092915050565b5f610df88383610d8d565b905092915050565b5f602082019050919050565b5f610e1682610cfe565b610e208185610d08565b935083602082028501610e3285610d18565b805f5b85811015610e6d5784840389528151610e4e8582610ded565b9450610e5983610e00565b925060208a01995050600181019050610e35565b50829750879550505050505092915050565b5f6020820190508181035f830152610e978184610e0c565b905092915050565b5f602082019050610eb25f830184610b8b565b92915050565b5f60208284031215610ecd57610ecc610af5565b5b5f610eda84828501610c79565b91505092915050565b5f5ffd5b5f5ffd5b7f4e487b71000000000000000000000000000000000000000000000000000000005f52604160045260245ffd5b610f2182610bc2565b810181811067ffffffffffffffff82111715610f4057610f3f610eeb565b5b80604052505050565b5f610f52610aec565b9050610f5e8282610f18565b919050565b5f67ffffffffffffffff821115610f7d57610f7c610eeb565b5b610f8682610bc2565b9050602081019050919050565b828183375f83830152505050565b5f610fb3610fae84610f63565b610f49565b905082815260208101848484011115610fcf57610fce610ee7565b5b610fda848285610f93565b509392505050565b5f82601f830112610ff657610ff5610ee3565b5b8135611006848260208601610fa1565b91505092915050565b5f5f5f5f6080858703121561102757611026610af5565b5b5f85013567ffffffffffffffff81111561104457611043610af9565b5b61105087828801610fe2565b945050602085013567ffffffffffffffff81111561107157611070610af9565b5b61107d87828801610fe2565b935050604061108e87828801610b1c565b925050606061109f87828801610b1c565b91505092959194509250565b7f4e487b71000000000000000000000000000000000000000000000000000000005f52602260045260245ffd5b5f60028204905060018216806110ef57607f821691505b602082108103611102576111016110ab565b5b50919050565b7f466163746f7279206973207061757365640000000000000000000000000000005f82015250565b5f61113c601183610ba4565b915061114782611108565b602082019050919050565b5f6020820190508181035f83015261116981611130565b9050919050565b5f60a0820190506111835f830188610b8b565b81810360208301526111958187610bd2565b905081810360408301526111a98186610bd2565b90506111b86060830185610c0a565b6111c56080830184610c0a565b9695505050505050565b5f819050815f5260205f209050919050565b5f6020601f8301049050919050565b5f82821b905092915050565b5f6008830261122b7fffffffffffffffffffffffffffffffffffffffffffffffffffffffffffffffff826111f0565b61123586836111f0565b95508019841693508086168417925050509392505050565b5f819050919050565b5f61127061126b61126684610afd565b61124d565b610afd565b9050919050565b5f819050919050565b61128983611256565b61129d61129582611277565b8484546111fc565b825550505050565b5f5f905090565b6112b46112a5565b6112bf818484611280565b505050565b5b818110156112e2576112d75f826112ac565b6001810190506112c5565b5050565b601f821115611327576112f8816111cf565b611301846111e1565b81016020851015611310578190505b61132461131c856111e1565b8301826112c4565b50505b505050565b5f82821c905092915050565b5f6113475f198460080261132c565b1980831691505092915050565b5f61135f8383611338565b9150826002028217905092915050565b61137882610b9a565b67ffffffffffffffff81111561139157611390610eeb565b5b61139b82546110d8565b6113a68282856112e6565b5f60209050601f8311600181146113d7575f84156113c5578287015190505b6113cf8582611354565b865550611436565b601f1984166113e5866111cf565b5f5b8281101561140c578489015182556001820191506020850194506020810190506113e7565b868310156114295784890151611425601f891682611338565b8355505b6001600288020188555050505b505050505050565b7f4e6f74206f776e65722e000000000000000000000000000000000000000000005f82015250565b5f611472600a83610ba4565b915061147d8261143e565b602082019050919050565b5f6020820190508181035f83015261149f81611466565b905091905056fe608060405234801561000f575f5ffd5b50604051612a2b380380612a2b833981810160405281019061003191906102c5565b835f908161003f919061057b565b50826001908161004f919061057b565b508160028190555062015180816100669190610677565b4261007191906106b8565b6003819055508460045f6101000a81548173ffffffffffffffffffffffffffffffffffffffff021916908373ffffffffffffffffffffffffffffffffffffffff1602179055505f600460156101000a81548160ff021916908360028111156100dc576100db6106eb565b5b02179055505050505050610718565b5f604051905090565b5f5ffd5b5f5ffd5b5f73ffffffffffffffffffffffffffffffffffffffff82169050919050565b5f610125826100fc565b9050919050565b6101358161011b565b811461013f575f5ffd5b50565b5f815190506101508161012c565b92915050565b5f5ffd5b5f5ffd5b5f601f19601f8301169050919050565b7f4e487b71000000000000000000000000000000000000000000000000000000005f52604160045260245ffd5b6101a48261015e565b810181811067ffffffffffffffff821117156101c3576101c261016e565b5b80604052505050565b5f6101d56100eb565b90506101e1828261019b565b919050565b5f67ffffffffffffffff821115610200576101ff61016e565b5b6102098261015e565b9050602081019050919050565b8281835e5f83830152505050565b5f610236610231846101e6565b6101cc565b9050828152602081018484840111156102525761025161015a565b5b61025d848285610216565b509392505050565b5f82601f83011261027957610278610156565b5b8151610289848260208601610224565b91505092915050565b5f819050919050565b6102a481610292565b81146102ae575f5ffd5b50565b5f815190506102bf8161029b565b92915050565b5f5f5f5f5f60a086880312156102de576102dd6100f4565b5b5f6102eb88828901610142565b955050602086015167ffffffffffffffff81111561030c5761030b6100f8565b5b61031888828901610265565b945050604086015167ffffffffffffffff811115610339576103386100f8565b5b61034588828901610265565b9350506060610356888289016102b1565b9250506080610367888289016102b1565b9150509295509295909350565b5f81519050919050565b7f4e487b71000000000000000000000000000000000000000000000000000000005f52602260045260245ffd5b5f60028204905060018216806103c257607f821691505b6020821081036103d5576103d461037e565b5b50919050565b5f819050815f5260205f209050919050565b5f6020601f8301049050919050565b5f82821b905092915050565b5f600883026104377fffffffffffffffffffffffffffffffffffffffffffffffffffffffffffffffff826103fc565b61044186836103fc565b95508019841693508086168417925050509392505050565b5f819050919050565b5f61047c61047761047284610292565b610459565b610292565b9050919050565b5f819050919050565b61049583610462565b6104a96104a182610483565b848454610408565b825550505050565b5f5f905090565b6104c06104b1565b6104cb81848461048c565b505050565b5b818110156104ee576104e35f826104b8565b6001810190506104d1565b5050565b601f82111561053357610504816103db565b61050d846103ed565b8101602085101561051c578190505b610530610528856103ed565b8301826104d0565b50505b505050565b5f82821c905092915050565b5f6105535f1984600802610538565b1980831691505092915050565b5f61056b8383610544565b9150826002028217905092915050565b61058482610374565b67ffffffffffffffff81111561059d5761059c61016e565b5b6105a782546103ab565b6105b28282856104f2565b5f60209050601f8311600181146105e3575f84156105d1578287015190505b6105db8582610560565b865550610642565b601f1984166105f1866103db565b5f5b82811015610618578489015182556001820191506020850194506020810190506105f3565b868310156106355784890151610631601f891682610544565b8355505b6001600288020188555050505b505050505050565b7f4e487b71000000000000000000000000000000000000000000000000000000005f52601160045260245ffd5b5f61068182610292565b915061068c83610292565b925082820261069a81610292565b915082820484148315176106b1576106b061064a565b5b5092915050565b5f6106c282610292565b91506106cd83610292565b92508282019050808211156106e5576106e461064a565b5b92915050565b7f4e487b71000000000000000000000000000000000000000000000000000000005f52602160045260245ffd5b612306806107255f395ff3fe60806040526004361061011e575f3560e01c80637284e4161161009f578063c19d93fb11610063578063c19d93fb146103a4578063c4ae3168146103ce578063c72b5176146103e4578063ca1d209d1461040e578063e1389b3e1461042a5761011e565b80637284e416146102ac5780637d8fce68146102d65780638b7afe2e146103125780638da5cb5b1461033c57806396324bd4146103665761011e565b806340193883116100e657806340193883146101de578063590e1ae3146102085780635c975abb1461021e5780635fe1410d146102485780636f7bc9be146102705761011e565b806306fdde0314610122578063105505151461014c57806329dcb0cf14610176578063389b7533146101a05780633ccfd60b146101c8575b5f5ffd5b34801561012d575f5ffd5b50610136610452565b60405161014391906113bd565b60405180910390f35b348015610157575f5ffd5b506101606104dd565b60405161016d9190611450565b60405180910390f35b348015610181575f5ffd5b5061018a610557565b6040516101979190611481565b60405180910390f35b3480156101ab575f5ffd5b506101c660048036038101906101c191906114d5565b61055d565b005b3480156101d3575f5ffd5b506101dc61068a565b005b3480156101e9575f5ffd5b506101f2610845565b6040516101ff9190611481565b60405180910390f35b348015610213575f5ffd5b5061021c61084b565b005b348015610229575f5ffd5b506102326109d8565b60405161023f919061151a565b60405180910390f35b348015610253575f5ffd5b5061026e600480360381019061026991906114d5565b6109eb565b005b34801561027b575f5ffd5b506102966004803603810190610291919061158d565b610b84565b6040516102a39190611481565b60405180910390f35b3480156102b7575f5ffd5b506102c0610b9e565b6040516102cd91906113bd565b60405180910390f35b3480156102e1575f5ffd5b506102fc60048036038101906102f791906115b8565b610c2a565b604051610309919061151a565b60405180910390f35b34801561031d575f5ffd5b50610326610c8f565b6040516103339190611481565b60405180910390f35b348015610347575f5ffd5b50610350610c96565b60405161035d9190611605565b60405180910390f35b348015610371575f5ffd5b5061038c600480360381019061038791906114d5565b610cbb565b60405161039b9392919061161e565b60405180910390f35b3480156103af575f5ffd5b506103b8610d76565b6040516103c59190611450565b60405180910390f35b3480156103d9575f5ffd5b506103e2610d89565b005b3480156103ef575f5ffd5b506103f8610e44565b60405161040591906117b9565b60405180910390f35b610428600480360381019061042391906114d5565b610f43565b005b348015610435575f5ffd5b50610450600480360381019061044b9190611905565b6110ee565b005b5f805461045e9061198c565b80601f016020809104026020016040519081016040528092919081815260200182805461048a9061198c565b80156104d55780601f106104ac576101008083540402835291602001916104d5565b820191905f5260205f20905b8154815290600101906020018083116104b857829003601f168201915b505050505081565b5f5f60028111156104f1576104f06113dd565b5b600460159054906101000a900460ff166002811115610513576105126113dd565b5b148015610521575060035442115b156105415760025447101561053757600261053a565b60015b9050610554565b600460159054906101000a900460ff1690505b90565b60035481565b60045f9054906101000a900473ffffffffffffffffffffffffffffffffffffffff1673ffffffffffffffffffffffffffffffffffffffff163373ffffffffffffffffffffffffffffffffffffffff16146105ec576040517f08c379a00000000000000000000000000000000000000000000000000000000081526004016105e390611a06565b60405180910390fd5b5f60028111156105ff576105fe6113dd565b5b600460159054906101000a900460ff166002811115610621576106206113dd565b5b14610661576040517f08c379a000000000000000000000000000000000000000000000000000000000815260040161065890611a6e565b60405180910390fd5b62015180816106709190611ab9565b60035f8282546106809190611afa565b9250508190555050565b60045f9054906101000a900473ffffffffffffffffffffffffffffffffffffffff1673ffffffffffffffffffffffffffffffffffffffff163373ffffffffffffffffffffffffffffffffffffffff1614610719576040517f08c379a000000000000000000000000000000000000000000000000000000000815260040161071090611a06565b60405180910390fd5b610721611230565b60016002811115610735576107346113dd565b5b600460159054906101000a900460ff166002811115610757576107566113dd565b5b14610797576040517f08c379a000000000000000000000000000000000000000000000000000000000815260040161078e90611b77565b60405180910390fd5b5f4790505f81116107dd576040517f08c379a00000000000000000000000000000000000000000000000000000000081526004016107d490611c05565b60405180910390fd5b60045f9054906101000a900473ffffffffffffffffffffffffffffffffffffffff1673ffffffffffffffffffffffffffffffffffffffff166108fc8290811502906040515f60405180830381858888f19350505050158015610841573d5f5f3e3d5ffd5b5050565b60025481565b610853611230565b600280811115610866576108656113dd565b5b600460159054906101000a900460ff166002811115610888576108876113dd565b5b146108c8576040517f08c379a00000000000000000000000000000000000000000000000000000000081526004016108bf90611c6d565b60405180910390fd5b5f60065f3373ffffffffffffffffffffffffffffffffffffffff1673ffffffffffffffffffffffffffffffffffffffff1681526020019081526020015f205f015490505f811161094d576040517f08c379a000000000000000000000000000000000000000000000000000000000815260040161094490611cd5565b60405180910390fd5b5f60065f3373ffffffffffffffffffffffffffffffffffffffff1673ffffffffffffffffffffffffffffffffffffffff1681526020019081526020015f205f01819055503373ffffffffffffffffffffffffffffffffffffffff166108fc8290811502906040515f60405180830381858888f193505050501580156109d4573d5f5f3e3d5ffd5b5050565b600460149054906101000a900460ff1681565b60045f9054906101000a900473ffffffffffffffffffffffffffffffffffffffff1673ffffffffffffffffffffffffffffffffffffffff163373ffffffffffffffffffffffffffffffffffffffff1614610a7a576040517f08c379a0000000000000000000000000000000000000000000000000000000008152600401610a7190611a06565b60405180910390fd5b6005805490508110610ac1576040517f08c379a0000000000000000000000000000000000000000000000000000000008152600401610ab890611d3d565b60405180910390fd5b60056001600580549050610ad59190611d5b565b81548110610ae657610ae5611d8e565b5b905f5260205f20906003020160058281548110610b0657610b05611d8e565b5b905f5260205f2090600302015f8201815f019081610b249190611f70565b5060018201548160010155600282015481600201559050506005805480610b4e57610b4d612055565b5b600190038181905f5260205f2090600302015f5f82015f610b6f91906112f5565b600182015f9055600282015f90555050905550565b6006602052805f5260405f205f91509050805f0154905081565b60018054610bab9061198c565b80601f0160208091040260200160405190810160405280929190818152602001828054610bd79061198c565b8015610c225780601f10610bf957610100808354040283529160200191610c22565b820191905f5260205f20905b815481529060010190602001808311610c0557829003601f168201915b505050505081565b5f60065f8473ffffffffffffffffffffffffffffffffffffffff1673ffffffffffffffffffffffffffffffffffffffff1681526020019081526020015f206001015f8381526020019081526020015f205f9054906101000a900460ff16905092915050565b5f47905090565b60045f9054906101000a900473ffffffffffffffffffffffffffffffffffffffff1681565b60058181548110610cca575f80fd5b905f5260205f2090600302015f91509050805f018054610ce99061198c565b80601f0160208091040260200160405190810160405280929190818152602001828054610d159061198c565b8015610d605780601f10610d3757610100808354040283529160200191610d60565b820191905f5260205f20905b815481529060010190602001808311610d4357829003601f168201915b5050505050908060010154908060020154905083565b600460159054906101000a900460ff1681565b60045f9054906101000a900473ffffffffffffffffffffffffffffffffffffffff1673ffffffffffffffffffffffffffffffffffffffff163373ffffffffffffffffffffffffffffffffffffffff1614610e18576040517f08c379a0000000000000000000000000000000000000000000000000000000008152600401610e0f90611a06565b60405180910390fd5b600460149054906101000a900460ff1615600460146101000a81548160ff021916908315150217905550565b60606005805480602002602001604051908101604052809291908181526020015f905b82821015610f3a578382905f5260205f2090600302016040518060600160405290815f82018054610e979061198c565b80601f0160208091040260200160405190810160405280929190818152602001828054610ec39061198c565b8015610f0e5780601f10610ee557610100808354040283529160200191610f0e565b820191905f5260205f20905b815481529060010190602001808311610ef157829003601f168201915b505050505081526020016001820154815260200160028201548152505081526020019060010190610e67565b50505050905090565b6005805490508110610f8a576040517f08c379a0000000000000000000000000000000000000000000000000000000008152600401610f81906120cc565b60405180910390fd5b60058181548110610f9e57610f9d611d8e565b5b905f5260205f209060030201600101543414610fef576040517f08c379a0000000000000000000000000000000000000000000000000000000008152600401610fe690612134565b60405180910390fd5b6005818154811061100357611002611d8e565b5b905f5260205f2090600302016002015f81548092919061102290612152565b91905055503460065f3373ffffffffffffffffffffffffffffffffffffffff1673ffffffffffffffffffffffffffffffffffffffff1681526020019081526020015f205f015f8282546110759190611afa565b92505081905550600160065f3373ffffffffffffffffffffffffffffffffffffffff1673ffffffffffffffffffffffffffffffffffffffff1681526020019081526020015f206001015f8381526020019081526020015f205f6101000a81548160ff0219169083151502179055506110eb611230565b50565b60045f9054906101000a900473ffffffffffffffffffffffffffffffffffffffff1673ffffffffffffffffffffffffffffffffffffffff163373ffffffffffffffffffffffffffffffffffffffff161461117d576040517f08c379a000000000000000000000000000000000000000000000000000000000815260040161117490611a06565b60405180910390fd5b5f81116111bf576040517f08c379a00000000000000000000000000000000000000000000000000000000081526004016111b6906121e3565b60405180910390fd5b600560405180606001604052808481526020018381526020015f815250908060018154018082558091505060019003905f5260205f2090600302015f909190919091505f820151815f0190816112159190612201565b50602082015181600101556040820151816002015550505050565b5f6002811115611243576112426113dd565b5b600460159054906101000a900460ff166002811115611265576112646113dd565b5b036112f35760035442106112b557600254471015611284576002611287565b60015b600460156101000a81548160ff021916908360028111156112ab576112aa6113dd565b5b02179055506112f2565b6002544710156112c5575f6112c8565b60015b600460156101000a81548160ff021916908360028111156112ec576112eb6113dd565b5b02179055505b5b565b5080546113019061198c565b5f825580601f10611312575061132f565b601f0160209004905f5260205f209081019061132e9190611332565b5b50565b5b80821115611349575f815f905550600101611333565b5090565b5f81519050919050565b5f82825260208201905092915050565b8281835e5f83830152505050565b5f601f19601f8301169050919050565b5f61138f8261134d565b6113998185611357565b93506113a9818560208601611367565b6113b281611375565b840191505092915050565b5f6020820190508181035f8301526113d58184611385565b905092915050565b7f4e487b71000000000000000000000000000000000000000000000000000000005f52602160045260245ffd5b6003811061141b5761141a6113dd565b5b50565b5f81905061142b8261140a565b919050565b5f61143a8261141e565b9050919050565b61144a81611430565b82525050565b5f6020820190506114635f830184611441565b92915050565b5f819050919050565b61147b81611469565b82525050565b5f6020820190506114945f830184611472565b92915050565b5f604051905090565b5f5ffd5b5f5ffd5b6114b481611469565b81146114be575f5ffd5b50565b5f813590506114cf816114ab565b92915050565b5f602082840312156114ea576114e96114a3565b5b5f6114f7848285016114c1565b91505092915050565b5f8115159050919050565b61151481611500565b82525050565b5f60208201905061152d5f83018461150b565b92915050565b5f73ffffffffffffffffffffffffffffffffffffffff82169050919050565b5f61155c82611533565b9050919050565b61156c81611552565b8114611576575f5ffd5b50565b5f8135905061158781611563565b92915050565b5f602082840312156115a2576115a16114a3565b5b5f6115af84828501611579565b91505092915050565b5f5f604083850312156115ce576115cd6114a3565b5b5f6115db85828601611579565b92505060206115ec858286016114c1565b9150509250929050565b6115ff81611552565b82525050565b5f6020820190506116185f8301846115f6565b92915050565b5f6060820190508181035f8301526116368186611385565b90506116456020830185611472565b6116526040830184611472565b949350505050565b5f81519050919050565b5f82825260208201905092915050565b5f819050602082019050919050565b5f82825260208201905092915050565b5f61169d8261134d565b6116a78185611683565b93506116b7818560208601611367565b6116c081611375565b840191505092915050565b6116d481611469565b82525050565b5f606083015f8301518482035f8601526116f48282611693565b915050602083015161170960208601826116cb565b50604083015161171c60408601826116cb565b508091505092915050565b5f61173283836116da565b905092915050565b5f602082019050919050565b5f6117508261165a565b61175a8185611664565b93508360208202850161176c85611674565b805f5b858110156117a757848403895281516117888582611727565b94506117938361173a565b925060208a0199505060018101905061176f565b50829750879550505050505092915050565b5f6020820190508181035f8301526117d18184611746565b905092915050565b5f5ffd5b5f5ffd5b7f4e487b71000000000000000000000000000000000000000000000000000000005f52604160045260245ffd5b61181782611375565b810181811067ffffffffffffffff82111715611836576118356117e1565b5b80604052505050565b5f61184861149a565b9050611854828261180e565b919050565b5f67ffffffffffffffff821115611873576118726117e1565b5b61187c82611375565b9050602081019050919050565b828183375f83830152505050565b5f6118a96118a484611859565b61183f565b9050828152602081018484840111156118c5576118c46117dd565b5b6118d0848285611889565b509392505050565b5f82601f8301126118ec576118eb6117d9565b5b81356118fc848260208601611897565b91505092915050565b5f5f6040838503121561191b5761191a6114a3565b5b5f83013567ffffffffffffffff811115611938576119376114a7565b5b611944858286016118d8565b9250506020611955858286016114c1565b9150509250929050565b7f4e487b71000000000000000000000000000000000000000000000000000000005f52602260045260245ffd5b5f60028204905060018216806119a357607f821691505b6020821081036119b6576119b561195f565b5b50919050565b7f4e6f6e2d617574686f72697a65642070617274790000000000000000000000005f82015250565b5f6119f0601483611357565b91506119fb826119bc565b602082019050919050565b5f6020820190508181035f830152611a1d816119e4565b9050919050565b7f43616d706169676e206973206e6f74206163746976652e0000000000000000005f82015250565b5f611a58601783611357565b9150611a6382611a24565b602082019050919050565b5f6020820190508181035f830152611a8581611a4c565b9050919050565b7f4e487b71000000000000000000000000000000000000000000000000000000005f52601160045260245ffd5b5f611ac382611469565b9150611ace83611469565b9250828202611adc81611469565b91508282048414831517611af357611af2611a8c565b5b5092915050565b5f611b0482611469565b9150611b0f83611469565b9250828201905080821115611b2757611b26611a8c565b5b92915050565b7f43616d706169676e206973206e6f74207375636365737366756c207965742e005f82015250565b5f611b61601f83611357565b9150611b6c82611b2d565b602082019050919050565b5f6020820190508181035f830152611b8e81611b55565b9050919050565b7f496e73756666696369656e742062616c616e636520666f7220776974686472615f8201527f77616c2e00000000000000000000000000000000000000000000000000000000602082015250565b5f611bef602483611357565b9150611bfa82611b95565b604082019050919050565b5f6020820190508181035f830152611c1c81611be3565b9050919050565b7f526566756e6473206e6f7420617661696c61626c652e000000000000000000005f82015250565b5f611c57601683611357565b9150611c6282611c23565b602082019050919050565b5f6020820190508181035f830152611c8481611c4b565b9050919050565b7f4e6f20636f6e747269627574696f6e20746f20726566756e642e0000000000005f82015250565b5f611cbf601a83611357565b9150611cca82611c8b565b602082019050919050565b5f6020820190508181035f830152611cec81611cb3565b9050919050565b7f47726f757020646f6573206e6f742065786973742100000000000000000000005f82015250565b5f611d27601583611357565b9150611d3282611cf3565b602082019050919050565b5f6020820190508181035f830152611d5481611d1b565b9050919050565b5f611d6582611469565b9150611d7083611469565b9250828203905081811115611d8857611d87611a8c565b5b92915050565b7f4e487b71000000000000000000000000000000000000000000000000000000005f52603260045260245ffd5b5f81549050611dc98161198c565b9050919050565b5f819050815f5260205f209050919050565b5f6020601f8301049050919050565b5f82821b905092915050565b5f60088302611e2c7fffffffffffffffffffffffffffffffffffffffffffffffffffffffffffffffff82611df1565b611e368683611df1565b95508019841693508086168417925050509392505050565b5f819050919050565b5f611e71611e6c611e6784611469565b611e4e565b611469565b9050919050565b5f819050919050565b611e8a83611e57565b611e9e611e9682611e78565b848454611dfd565b825550505050565b5f5f905090565b611eb5611ea6565b611ec0818484611e81565b505050565b5b81811015611ee357611ed85f82611ead565b600181019050611ec6565b5050565b601f821115611f2857611ef981611dd0565b611f0284611de2565b81016020851015611f11578190505b611f25611f1d85611de2565b830182611ec5565b50505b505050565b5f82821c905092915050565b5f611f485f1984600802611f2d565b1980831691505092915050565b5f611f608383611f39565b9150826002028217905092915050565b818103611f7e575050612053565b611f8782611dbb565b67ffffffffffffffff811115611fa057611f9f6117e1565b5b611faa825461198c565b611fb5828285611ee7565b5f601f831160018114611fe2575f8415611fd0578287015490505b611fda8582611f55565b86555061204c565b601f198416611ff087611dd0565b9650611ffb86611dd0565b5f5b8281101561202257848901548255600182019150600185019450602081019050611ffd565b8683101561203f578489015461203b601f891682611f39565b8355505b6001600288020188555050505b5050505050505b565b7f4e487b71000000000000000000000000000000000000000000000000000000005f52603160045260245ffd5b7f496e76616c69642067726f75702e0000000000000000000000000000000000005f82015250565b5f6120b6600e83611357565b91506120c182612082565b602082019050919050565b5f6020820190508181035f8301526120e3816120aa565b9050919050565b7f496e636f727265637420616d6f756e742e0000000000000000000000000000005f82015250565b5f61211e601183611357565b9150612129826120ea565b602082019050919050565b5f6020820190508181035f83015261214b81612112565b9050919050565b5f61215c82611469565b91507fffffffffffffffffffffffffffffffffffffffffffffffffffffffffffffffff820361218e5761218d611a8c565b5b600182019050919050565b7f416d6f756e74206d7573742062652067726561746572207468616e20302e00005f82015250565b5f6121cd601e83611357565b91506121d882612199565b602082019050919050565b5f6020820190508181035f8301526121fa816121c1565b9050919050565b61220a8261134d565b67ffffffffffffffff811115612223576122226117e1565b5b61222d825461198c565b612238828285611ee7565b5f60209050601f831160018114612269575f8415612257578287015190505b6122618582611f55565b8655506122c8565b601f19841661227786611dd0565b5f5b8281101561229e57848901518255600182019150602085019450602081019050612279565b868310156122bb57848901516122b7601f891682611f39565b8355505b6001600288020188555050505b50505050505056fea2646970667358221220e66b18b1853588496a9dbe3ac28b5d067a12d12c537e2184cbdb932a7898c8b664736f6c634300081c0033a2646970667358221220464b6f02d37925150c39067b9b1e239e45bfe27b16cd87a9c7c262e7352f91f764736f6c634300081c0033","linkReferences":{}},"methodIdentifiers":{"campaigns(uint256)":"141961bc","createCampaign(string,string,uint256,uint256)":"a318f269","getAllCampaigns()":"86cdf604","getUserCampaigns(address)":"a1e5084c","owner()":"8da5cb5b","paused()":"5c975abb","togglePause()":"c4ae3168","userCampaigns(address,uint256)":"19ac74bd"},"id":19}